{"contracts/Escrow.sol":{"Escrow":{"abi":[{"inputs":[{"internalType":"address","name":"_seller","type":"address"}],"name":"createDeal","outputs":[{"internalType":"uint256","name":"","type":"uint256"}],"stateMutability":"nonpayable","type":"function"},{"inputs":[],"name":"dealCounter","outputs":[{"internalType":"uint256","name":"","type":"uint256"}],"stateMutability":"view","type":"function"},{"inputs":[{"internalType":"uint256","name":"","type":"uint256"}],"name":"deals","outputs":[{"internalType":"address","name":"buyer","type":"address"},{"internalType":"address","name":"seller","type":"address"},{"internalType":"uint256","name":"amount","type":"uint256"},{"internalType":"enum Escrow.DealStatus","name":"status","type":"uint8"}],"stateMutability":"view","type":"function"},{"inputs":[{"internalType":"uint256","name":"_dealId","type":"uint256"}],"name":"fundDeal","outputs":[],"stateMutability":"payable","type":"function"},{"inputs":[{"internalType":"uint256","name":"_dealId","type":"uint256"}],"name":"releaseFunds","outputs":[],"stateMutability":"nonpayable","type":"function"}],"evm":{"bytecode":{"linkReferences":{},"object":"608060405234801561001057600080fd5b50610b42806100206000396000f3fe60806040526004361061004a5760003560e01c806303988f841461004f578063217328b61461008f57806340500932146100ba5780634d68282f146100f757806385d60ec614610120575b600080fd5b34801561005b57600080fd5b50610076600480360381019061007191906106bb565b61013c565b60405161008694939291906107af565b60405180910390f35b34801561009b57600080fd5b506100a46101b9565b6040516100b191906107f4565b60405180910390f35b3480156100c657600080fd5b506100e160048036038101906100dc919061083b565b6101bf565b6040516100ee91906107f4565b60405180910390f35b34801561010357600080fd5b5061011e600480360381019061011991906106bb565b610323565b005b61013a600480360381019061013591906106bb565b6104e3565b005b60006020528060005260406000206000915090508060000160009054906101000a900473ffffffffffffffffffffffffffffffffffffffff16908060010160009054906101000a900473ffffffffffffffffffffffffffffffffffffffff16908060020154908060030160009054906101000a900460ff16905084565b60015481565b6000600160008154809291906101d490610897565b919050555060405180608001604052803373ffffffffffffffffffffffffffffffffffffffff1681526020018373ffffffffffffffffffffffffffffffffffffffff168152602001600081526020016000600381111561023757610236610738565b5b815250600080600154815260200190815260200160002060008201518160000160006101000a81548173ffffffffffffffffffffffffffffffffffffffff021916908373ffffffffffffffffffffffffffffffffffffffff16021790555060208201518160010160006101000a81548173ffffffffffffffffffffffffffffffffffffffff021916908373ffffffffffffffffffffffffffffffffffffffff1602179055506040820151816002015560608201518160030160006101000a81548160ff0219169083600381111561031157610310610738565b5b02179055509050506001549050919050565b600080600083815260200190815260200160002090508060000160009054906101000a900473ffffffffffffffffffffffffffffffffffffffff1673ffffffffffffffffffffffffffffffffffffffff163373ffffffffffffffffffffffffffffffffffffffff16146103cb576040517f08c379a00000000000000000000000000000000000000000000000000000000081526004016103c29061093c565b60405180910390fd5b600160038111156103df576103de610738565b5b8160030160009054906101000a900460ff16600381111561040357610402610738565b5b14610443576040517f08c379a000000000000000000000000000000000000000000000000000000000815260040161043a906109a8565b60405180910390fd5b60028160030160006101000a81548160ff0219169083600381111561046b5761046a610738565b5b02179055508060010160009054906101000a900473ffffffffffffffffffffffffffffffffffffffff1673ffffffffffffffffffffffffffffffffffffffff166108fc82600201549081150290604051600060405180830381858888f193505050501580156104de573d6000803e3d6000fd5b505050565b600080600083815260200190815260200160002090508060000160009054906101000a900473ffffffffffffffffffffffffffffffffffffffff1673ffffffffffffffffffffffffffffffffffffffff163373ffffffffffffffffffffffffffffffffffffffff161461058b576040517f08c379a000000000000000000000000000000000000000000000000000000000815260040161058290610a14565b60405180910390fd5b6000600381111561059f5761059e610738565b5b8160030160009054906101000a900460ff1660038111156105c3576105c2610738565b5b14610603576040517f08c379a00000000000000000000000000000000000000000000000000000000081526004016105fa90610a80565b60405180910390fd5b60003411610646576040517f08c379a000000000000000000000000000000000000000000000000000000000815260040161063d90610aec565b60405180910390fd5b34816002018190555060018160030160006101000a81548160ff0219169083600381111561067757610676610738565b5b02179055505050565b600080fd5b6000819050919050565b61069881610685565b81146106a357600080fd5b50565b6000813590506106b58161068f565b92915050565b6000602082840312156106d1576106d0610680565b5b60006106df848285016106a6565b91505092915050565b600073ffffffffffffffffffffffffffffffffffffffff82169050919050565b6000610713826106e8565b9050919050565b61072381610708565b82525050565b61073281610685565b82525050565b7f4e487b7100000000000000000000000000000000000000000000000000000000600052602160045260246000fd5b6004811061077857610777610738565b5b50565b600081905061078982610767565b919050565b60006107998261077b565b9050919050565b6107a98161078e565b82525050565b60006080820190506107c4600083018761071a565b6107d1602083018661071a565b6107de6040830185610729565b6107eb60608301846107a0565b95945050505050565b60006020820190506108096000830184610729565b92915050565b61081881610708565b811461082357600080fd5b50565b6000813590506108358161080f565b92915050565b60006020828403121561085157610850610680565b5b600061085f84828501610826565b91505092915050565b7f4e487b7100000000000000000000000000000000000000000000000000000000600052601160045260246000fd5b60006108a282610685565b91507fffffffffffffffffffffffffffffffffffffffffffffffffffffffffffffffff82036108d4576108d3610868565b5b600182019050919050565b600082825260208201905092915050565b7f4f6e6c792062757965722063616e2072656c6561736500000000000000000000600082015250565b60006109266016836108df565b9150610931826108f0565b602082019050919050565b6000602082019050818103600083015261095581610919565b9050919050565b7f4465616c206e6f742066756e6465640000000000000000000000000000000000600082015250565b6000610992600f836108df565b915061099d8261095c565b602082019050919050565b600060208201905081810360008301526109c181610985565b9050919050565b7f4f6e6c792062757965722063616e2066756e6400000000000000000000000000600082015250565b60006109fe6013836108df565b9150610a09826109c8565b602082019050919050565b60006020820190508181036000830152610a2d816109f1565b9050919050565b7f4465616c206e6f742070656e64696e6700000000000000000000000000000000600082015250565b6000610a6a6010836108df565b9150610a7582610a34565b602082019050919050565b60006020820190508181036000830152610a9981610a5d565b9050919050565b7f4e6f2066756e64732073656e7400000000000000000000000000000000000000600082015250565b6000610ad6600d836108df565b9150610ae182610aa0565b602082019050919050565b60006020820190508181036000830152610b0581610ac9565b905091905056fea2646970667358221220591ef4aebe06c3c84c12f4c953bfefae4db723b227106f1cbb2b960aaec2029e64736f6c63430008110033","opcodes":"PUSH1 0x80 PUSH1 0x40 MSTORE CALLVALUE DUP1 ISZERO PUSH2 0x10 JUMPI PUSH1 0x0 DUP1 REVERT JUMPDEST POP PUSH2 0xB42 DUP1 PUSH2 0x20 PUSH1 0x0 CODECOPY PUSH1 0x0 RETURN INVALID PUSH1 0x80 PUSH1 0x40 MSTORE PUSH1 0x4 CALLDATASIZE LT PUSH2 0x4A JUMPI PUSH1 0x0 CALLDATALOAD PUSH1 0xE0 SHR DUP1 PUSH4 0x3988F84 EQ PUSH2 0x4F JUMPI DUP1 PUSH4 0x217328B6 EQ PUSH2 0x8F JUMPI DUP1 PUSH4 0x40500932 EQ PUSH2 0xBA JUMPI DUP1 PUSH4 0x4D68282F EQ PUSH2 0xF7 JUMPI DUP1 PUSH4 0x85D60EC6 EQ PUSH2 0x120 JUMPI JUMPDEST PUSH1 0x0 DUP1 REVERT JUMPDEST CALLVALUE DUP1 ISZERO PUSH2 0x5B JUMPI PUSH1 0x0 DUP1 REVERT JUMPDEST POP PUSH2 0x76 PUSH1 0x4 DUP1 CALLDATASIZE SUB DUP2 ADD SWAP1 PUSH2 0x71 SWAP2 SWAP1 PUSH2 0x6BB JUMP JUMPDEST PUSH2 0x13C JUMP JUMPDEST PUSH1 0x40 MLOAD PUSH2 0x86 SWAP5 SWAP4 SWAP3 SWAP2 SWAP1 PUSH2 0x7AF JUMP JUMPDEST PUSH1 0x40 MLOAD DUP1 SWAP2 SUB SWAP1 RETURN JUMPDEST CALLVALUE DUP1 ISZERO PUSH2 0x9B JUMPI PUSH1 0x0 DUP1 REVERT JUMPDEST POP PUSH2 0xA4 PUSH2 0x1B9 JUMP JUMPDEST PUSH1 0x40 MLOAD PUSH2 0xB1 SWAP2 SWAP1 PUSH2 0x7F4 JUMP JUMPDEST PUSH1 0x40 MLOAD DUP1 SWAP2 SUB SWAP1 RETURN JUMPDEST CALLVALUE DUP1 ISZERO PUSH2 0xC6 JUMPI PUSH1 0x0 DUP1 REVERT JUMPDEST POP PUSH2 0xE1 PUSH1 0x4 DUP1 CALLDATASIZE SUB DUP2 ADD SWAP1 PUSH2 0xDC SWAP2 SWAP1 PUSH2 0x83B JUMP JUMPDEST PUSH2 0x1BF JUMP JUMPDEST PUSH1 0x40 MLOAD PUSH2 0xEE SWAP2 SWAP1 PUSH2 0x7F4 JUMP JUMPDEST PUSH1 0x40 MLOAD DUP1 SWAP2 SUB SWAP1 RETURN JUMPDEST CALLVALUE DUP1 ISZERO PUSH2 0x103 JUMPI PUSH1 0x0 DUP1 REVERT JUMPDEST POP PUSH2 0x11E PUSH1 0x4 DUP1 CALLDATASIZE SUB DUP2 ADD SWAP1 PUSH2 0x119 SWAP2 SWAP1 PUSH2 0x6BB JUMP JUMPDEST PUSH2 0x323 JUMP JUMPDEST STOP JUMPDEST PUSH2 0x13A PUSH1 0x4 DUP1 CALLDATASIZE SUB DUP2 ADD SWAP1 PUSH2 0x135 SWAP2 SWAP1 PUSH2 0x6BB JUMP JUMPDEST PUSH2 0x4E3 JUMP JUMPDEST STOP JUMPDEST PUSH1 0x0 PUSH1 0x20 MSTORE DUP1 PUSH1 0x0 MSTORE PUSH1 0x40 PUSH1 0x0 KECCAK256 PUSH1 0x0 SWAP2 POP SWAP1 POP DUP1 PUSH1 0x0 ADD PUSH1 0x0 SWAP1 SLOAD SWAP1 PUSH2 0x100 EXP SWAP1 DIV PUSH20 0xFFFFFFFFFFFFFFFFFFFFFFFFFFFFFFFFFFFFFFFF AND SWAP1 DUP1 PUSH1 0x1 ADD PUSH1 0x0 SWAP1 SLOAD SWAP1 PUSH2 0x100 EXP SWAP1 DIV PUSH20 0xFFFFFFFFFFFFFFFFFFFFFFFFFFFFFFFFFFFFFFFF AND SWAP1 DUP1 PUSH1 0x2 ADD SLOAD SWAP1 DUP1 PUSH1 0x3 ADD PUSH1 0x0 SWAP1 SLOAD SWAP1 PUSH2 0x100 EXP SWAP1 DIV PUSH1 0xFF AND SWAP1 POP DUP5 JUMP JUMPDEST PUSH1 0x1 SLOAD DUP2 JUMP JUMPDEST PUSH1 0x0 PUSH1 0x1 PUSH1 0x0 DUP2 SLOAD DUP1 SWAP3 SWAP2 SWAP1 PUSH2 0x1D4 SWAP1 PUSH2 0x897 JUMP JUMPDEST SWAP2 SWAP1 POP SSTORE POP PUSH1 0x40 MLOAD DUP1 PUSH1 0x80 ADD PUSH1 0x40 MSTORE DUP1 CALLER PUSH20 0xFFFFFFFFFFFFFFFFFFFFFFFFFFFFFFFFFFFFFFFF AND DUP2 MSTORE PUSH1 0x20 ADD DUP4 PUSH20 0xFFFFFFFFFFFFFFFFFFFFFFFFFFFFFFFFFFFFFFFF AND DUP2 MSTORE PUSH1 0x20 ADD PUSH1 0x0 DUP2 MSTORE PUSH1 0x20 ADD PUSH1 0x0 PUSH1 0x3 DUP2 GT ISZERO PUSH2 0x237 JUMPI PUSH2 0x236 PUSH2 0x738 JUMP JUMPDEST JUMPDEST DUP2 MSTORE POP PUSH1 0x0 DUP1 PUSH1 0x1 SLOAD DUP2 MSTORE PUSH1 0x20 ADD SWAP1 DUP2 MSTORE PUSH1 0x20 ADD PUSH1 0x0 KECCAK256 PUSH1 0x0 DUP3 ADD MLOAD DUP2 PUSH1 0x0 ADD PUSH1 0x0 PUSH2 0x100 EXP DUP2 SLOAD DUP2 PUSH20 0xFFFFFFFFFFFFFFFFFFFFFFFFFFFFFFFFFFFFFFFF MUL NOT AND SWAP1 DUP4 PUSH20 0xFFFFFFFFFFFFFFFFFFFFFFFFFFFFFFFFFFFFFFFF AND MUL OR SWAP1 SSTORE POP PUSH1 0x20 DUP3 ADD MLOAD DUP2 PUSH1 0x1 ADD PUSH1 0x0 PUSH2 0x100 EXP DUP2 SLOAD DUP2 PUSH20 0xFFFFFFFFFFFFFFFFFFFFFFFFFFFFFFFFFFFFFFFF MUL NOT AND SWAP1 DUP4 PUSH20 0xFFFFFFFFFFFFFFFFFFFFFFFFFFFFFFFFFFFFFFFF AND MUL OR SWAP1 SSTORE POP PUSH1 0x40 DUP3 ADD MLOAD DUP2 PUSH1 0x2 ADD SSTORE PUSH1 0x60 DUP3 ADD MLOAD DUP2 PUSH1 0x3 ADD PUSH1 0x0 PUSH2 0x100 EXP DUP2 SLOAD DUP2 PUSH1 0xFF MUL NOT AND SWAP1 DUP4 PUSH1 0x3 DUP2 GT ISZERO PUSH2 0x311 JUMPI PUSH2 0x310 PUSH2 0x738 JUMP JUMPDEST JUMPDEST MUL OR SWAP1 SSTORE POP SWAP1 POP POP PUSH1 0x1 SLOAD SWAP1 POP SWAP2 SWAP1 POP JUMP JUMPDEST PUSH1 0x0 DUP1 PUSH1 0x0 DUP4 DUP2 MSTORE PUSH1 0x20 ADD SWAP1 DUP2 MSTORE PUSH1 0x20 ADD PUSH1 0x0 KECCAK256 SWAP1 POP DUP1 PUSH1 0x0 ADD PUSH1 0x0 SWAP1 SLOAD SWAP1 PUSH2 0x100 EXP SWAP1 DIV PUSH20 0xFFFFFFFFFFFFFFFFFFFFFFFFFFFFFFFFFFFFFFFF AND PUSH20 0xFFFFFFFFFFFFFFFFFFFFFFFFFFFFFFFFFFFFFFFF AND CALLER PUSH20 0xFFFFFFFFFFFFFFFFFFFFFFFFFFFFFFFFFFFFFFFF AND EQ PUSH2 0x3CB JUMPI PUSH1 0x40 MLOAD PUSH32 0x8C379A000000000000000000000000000000000000000000000000000000000 DUP2 MSTORE PUSH1 0x4 ADD PUSH2 0x3C2 SWAP1 PUSH2 0x93C JUMP JUMPDEST PUSH1 0x40 MLOAD DUP1 SWAP2 SUB SWAP1 REVERT JUMPDEST PUSH1 0x1 PUSH1 0x3 DUP2 GT ISZERO PUSH2 0x3DF JUMPI PUSH2 0x3DE PUSH2 0x738 JUMP JUMPDEST JUMPDEST DUP2 PUSH1 0x3 ADD PUSH1 0x0 SWAP1 SLOAD SWAP1 PUSH2 0x100 EXP SWAP1 DIV PUSH1 0xFF AND PUSH1 0x3 DUP2 GT ISZERO PUSH2 0x403 JUMPI PUSH2 0x402 PUSH2 0x738 JUMP JUMPDEST JUMPDEST EQ PUSH2 0x443 JUMPI PUSH1 0x40 MLOAD PUSH32 0x8C379A000000000000000000000000000000000000000000000000000000000 DUP2 MSTORE PUSH1 0x4 ADD PUSH2 0x43A SWAP1 PUSH2 0x9A8 JUMP JUMPDEST PUSH1 0x40 MLOAD DUP1 SWAP2 SUB SWAP1 REVERT JUMPDEST PUSH1 0x2 DUP2 PUSH1 0x3 ADD PUSH1 0x0 PUSH2 0x100 EXP DUP2 SLOAD DUP2 PUSH1 0xFF MUL NOT AND SWAP1 DUP4 PUSH1 0x3 DUP2 GT ISZERO PUSH2 0x46B JUMPI PUSH2 0x46A PUSH2 0x738 JUMP JUMPDEST JUMPDEST MUL OR SWAP1 SSTORE POP DUP1 PUSH1 0x1 ADD PUSH1 0x0 SWAP1 SLOAD SWAP1 PUSH2 0x100 EXP SWAP1 DIV PUSH20 0xFFFFFFFFFFFFFFFFFFFFFFFFFFFFFFFFFFFFFFFF AND PUSH20 0xFFFFFFFFFFFFFFFFFFFFFFFFFFFFFFFFFFFFFFFF AND PUSH2 0x8FC DUP3 PUSH1 0x2 ADD SLOAD SWAP1 DUP2 ISZERO MUL SWAP1 PUSH1 0x40 MLOAD PUSH1 0x0 PUSH1 0x40 MLOAD DUP1 DUP4 SUB DUP2 DUP6 DUP9 DUP9 CALL SWAP4 POP POP POP POP ISZERO DUP1 ISZERO PUSH2 0x4DE JUMPI RETURNDATASIZE PUSH1 0x0 DUP1 RETURNDATACOPY RETURNDATASIZE PUSH1 0x0 REVERT JUMPDEST POP POP POP JUMP JUMPDEST PUSH1 0x0 DUP1 PUSH1 0x0 DUP4 DUP2 MSTORE PUSH1 0x20 ADD SWAP1 DUP2 MSTORE PUSH1 0x20 ADD PUSH1 0x0 KECCAK256 SWAP1 POP DUP1 PUSH1 0x0 ADD PUSH1 0x0 SWAP1 SLOAD SWAP1 PUSH2 0x100 EXP SWAP1 DIV PUSH20 0xFFFFFFFFFFFFFFFFFFFFFFFFFFFFFFFFFFFFFFFF AND PUSH20 0xFFFFFFFFFFFFFFFFFFFFFFFFFFFFFFFFFFFFFFFF AND CALLER PUSH20 0xFFFFFFFFFFFFFFFFFFFFFFFFFFFFFFFFFFFFFFFF AND EQ PUSH2 0x58B JUMPI PUSH1 0x40 MLOAD PUSH32 0x8C379A000000000000000000000000000000000000000000000000000000000 DUP2 MSTORE PUSH1 0x4 ADD PUSH2 0x582 SWAP1 PUSH2 0xA14 JUMP JUMPDEST PUSH1 0x40 MLOAD DUP1 SWAP2 SUB SWAP1 REVERT JUMPDEST PUSH1 0x0 PUSH1 0x3 DUP2 GT ISZERO PUSH2 0x59F JUMPI PUSH2 0x59E PUSH2 0x738 JUMP JUMPDEST JUMPDEST DUP2 PUSH1 0x3 ADD PUSH1 0x0 SWAP1 SLOAD SWAP1 PUSH2 0x100 EXP SWAP1 DIV PUSH1 0xFF AND PUSH1 0x3 DUP2 GT ISZERO PUSH2 0x5C3 JUMPI PUSH2 0x5C2 PUSH2 0x738 JUMP JUMPDEST JUMPDEST EQ PUSH2 0x603 JUMPI PUSH1 0x40 MLOAD PUSH32 0x8C379A000000000000000000000000000000000000000000000000000000000 DUP2 MSTORE PUSH1 0x4 ADD PUSH2 0x5FA SWAP1 PUSH2 0xA80 JUMP JUMPDEST PUSH1 0x40 MLOAD DUP1 SWAP2 SUB SWAP1 REVERT JUMPDEST PUSH1 0x0 CALLVALUE GT PUSH2 0x646 JUMPI PUSH1 0x40 MLOAD PUSH32 0x8C379A000000000000000000000000000000000000000000000000000000000 DUP2 MSTORE PUSH1 0x4 ADD PUSH2 0x63D SWAP1 PUSH2 0xAEC JUMP JUMPDEST PUSH1 0x40 MLOAD DUP1 SWAP2 SUB SWAP1 REVERT JUMPDEST CALLVALUE DUP2 PUSH1 0x2 ADD DUP2 SWAP1 SSTORE POP PUSH1 0x1 DUP2 PUSH1 0x3 ADD PUSH1 0x0 PUSH2 0x100 EXP DUP2 SLOAD DUP2 PUSH1 0xFF MUL NOT AND SWAP1 DUP4 PUSH1 0x3 DUP2 GT ISZERO PUSH2 0x677 JUMPI PUSH2 0x676 PUSH2 0x738 JUMP JUMPDEST JUMPDEST MUL OR SWAP1 SSTORE POP POP POP JUMP JUMPDEST PUSH1 0x0 DUP1 REVERT JUMPDEST PUSH1 0x0 DUP2 SWAP1 POP SWAP2 SWAP1 POP JUMP JUMPDEST PUSH2 0x698 DUP2 PUSH2 0x685 JUMP JUMPDEST DUP2 EQ PUSH2 0x6A3 JUMPI PUSH1 0x0 DUP1 REVERT JUMPDEST POP JUMP JUMPDEST PUSH1 0x0 DUP2 CALLDATALOAD SWAP1 POP PUSH2 0x6B5 DUP2 PUSH2 0x68F JUMP JUMPDEST SWAP3 SWAP2 POP POP JUMP JUMPDEST PUSH1 0x0 PUSH1 0x20 DUP3 DUP5 SUB SLT ISZERO PUSH2 0x6D1 JUMPI PUSH2 0x6D0 PUSH2 0x680 JUMP JUMPDEST JUMPDEST PUSH1 0x0 PUSH2 0x6DF DUP5 DUP3 DUP6 ADD PUSH2 0x6A6 JUMP JUMPDEST SWAP2 POP POP SWAP3 SWAP2 POP POP JUMP JUMPDEST PUSH1 0x0 PUSH20 0xFFFFFFFFFFFFFFFFFFFFFFFFFFFFFFFFFFFFFFFF DUP3 AND SWAP1 POP SWAP2 SWAP1 POP JUMP JUMPDEST PUSH1 0x0 PUSH2 0x713 DUP3 PUSH2 0x6E8 JUMP JUMPDEST SWAP1 POP SWAP2 SWAP1 POP JUMP JUMPDEST PUSH2 0x723 DUP2 PUSH2 0x708 JUMP JUMPDEST DUP3 MSTORE POP POP JUMP JUMPDEST PUSH2 0x732 DUP2 PUSH2 0x685 JUMP JUMPDEST DUP3 MSTORE POP POP JUMP JUMPDEST PUSH32 0x4E487B7100000000000000000000000000000000000000000000000000000000 PUSH1 0x0 MSTORE PUSH1 0x21 PUSH1 0x4 MSTORE PUSH1 0x24 PUSH1 0x0 REVERT JUMPDEST PUSH1 0x4 DUP2 LT PUSH2 0x778 JUMPI PUSH2 0x777 PUSH2 0x738 JUMP JUMPDEST JUMPDEST POP JUMP JUMPDEST PUSH1 0x0 DUP2 SWAP1 POP PUSH2 0x789 DUP3 PUSH2 0x767 JUMP JUMPDEST SWAP2 SWAP1 POP JUMP JUMPDEST PUSH1 0x0 PUSH2 0x799 DUP3 PUSH2 0x77B JUMP JUMPDEST SWAP1 POP SWAP2 SWAP1 POP JUMP JUMPDEST PUSH2 0x7A9 DUP2 PUSH2 0x78E JUMP JUMPDEST DUP3 MSTORE POP POP JUMP JUMPDEST PUSH1 0x0 PUSH1 0x80 DUP3 ADD SWAP1 POP PUSH2 0x7C4 PUSH1 0x0 DUP4 ADD DUP8 PUSH2 0x71A JUMP JUMPDEST PUSH2 0x7D1 PUSH1 0x20 DUP4 ADD DUP7 PUSH2 0x71A JUMP JUMPDEST PUSH2 0x7DE PUSH1 0x40 DUP4 ADD DUP6 PUSH2 0x729 JUMP JUMPDEST PUSH2 0x7EB PUSH1 0x60 DUP4 ADD DUP5 PUSH2 0x7A0 JUMP JUMPDEST SWAP6 SWAP5 POP POP POP POP POP JUMP JUMPDEST PUSH1 0x0 PUSH1 0x20 DUP3 ADD SWAP1 POP PUSH2 0x809 PUSH1 0x0 DUP4 ADD DUP5 PUSH2 0x729 JUMP JUMPDEST SWAP3 SWAP2 POP POP JUMP JUMPDEST PUSH2 0x818 DUP2 PUSH2 0x708 JUMP JUMPDEST DUP2 EQ PUSH2 0x823 JUMPI PUSH1 0x0 DUP1 REVERT JUMPDEST POP JUMP JUMPDEST PUSH1 0x0 DUP2 CALLDATALOAD SWAP1 POP PUSH2 0x835 DUP2 PUSH2 0x80F JUMP JUMPDEST SWAP3 SWAP2 POP POP JUMP JUMPDEST PUSH1 0x0 PUSH1 0x20 DUP3 DUP5 SUB SLT ISZERO PUSH2 0x851 JUMPI PUSH2 0x850 PUSH2 0x680 JUMP JUMPDEST JUMPDEST PUSH1 0x0 PUSH2 0x85F DUP5 DUP3 DUP6 ADD PUSH2 0x826 JUMP JUMPDEST SWAP2 POP POP SWAP3 SWAP2 POP POP JUMP JUMPDEST PUSH32 0x4E487B7100000000000000000000000000000000000000000000000000000000 PUSH1 0x0 MSTORE PUSH1 0x11 PUSH1 0x4 MSTORE PUSH1 0x24 PUSH1 0x0 REVERT JUMPDEST PUSH1 0x0 PUSH2 0x8A2 DUP3 PUSH2 0x685 JUMP JUMPDEST SWAP2 POP PUSH32 0xFFFFFFFFFFFFFFFFFFFFFFFFFFFFFFFFFFFFFFFFFFFFFFFFFFFFFFFFFFFFFFFF DUP3 SUB PUSH2 0x8D4 JUMPI PUSH2 0x8D3 PUSH2 0x868 JUMP JUMPDEST JUMPDEST PUSH1 0x1 DUP3 ADD SWAP1 POP SWAP2 SWAP1 POP JUMP JUMPDEST PUSH1 0x0 DUP3 DUP3 MSTORE PUSH1 0x20 DUP3 ADD SWAP1 POP SWAP3 SWAP2 POP POP JUMP JUMPDEST PUSH32 0x4F6E6C792062757965722063616E2072656C6561736500000000000000000000 PUSH1 0x0 DUP3 ADD MSTORE POP JUMP JUMPDEST PUSH1 0x0 PUSH2 0x926 PUSH1 0x16 DUP4 PUSH2 0x8DF JUMP JUMPDEST SWAP2 POP PUSH2 0x931 DUP3 PUSH2 0x8F0 JUMP JUMPDEST PUSH1 0x20 DUP3 ADD SWAP1 POP SWAP2 SWAP1 POP JUMP JUMPDEST PUSH1 0x0 PUSH1 0x20 DUP3 ADD SWAP1 POP DUP2 DUP2 SUB PUSH1 0x0 DUP4 ADD MSTORE PUSH2 0x955 DUP2 PUSH2 0x919 JUMP JUMPDEST SWAP1 POP SWAP2 SWAP1 POP JUMP JUMPDEST PUSH32 0x4465616C206E6F742066756E6465640000000000000000000000000000000000 PUSH1 0x0 DUP3 ADD MSTORE POP JUMP JUMPDEST PUSH1 0x0 PUSH2 0x992 PUSH1 0xF DUP4 PUSH2 0x8DF JUMP JUMPDEST SWAP2 POP PUSH2 0x99D DUP3 PUSH2 0x95C JUMP JUMPDEST PUSH1 0x20 DUP3 ADD SWAP1 POP SWAP2 SWAP1 POP JUMP JUMPDEST PUSH1 0x0 PUSH1 0x20 DUP3 ADD SWAP1 POP DUP2 DUP2 SUB PUSH1 0x0 DUP4 ADD MSTORE PUSH2 0x9C1 DUP2 PUSH2 0x985 JUMP JUMPDEST SWAP1 POP SWAP2 SWAP1 POP JUMP JUMPDEST PUSH32 0x4F6E6C792062757965722063616E2066756E6400000000000000000000000000 PUSH1 0x0 DUP3 ADD MSTORE POP JUMP JUMPDEST PUSH1 0x0 PUSH2 0x9FE PUSH1 0x13 DUP4 PUSH2 0x8DF JUMP JUMPDEST SWAP2 POP PUSH2 0xA09 DUP3 PUSH2 0x9C8 JUMP JUMPDEST PUSH1 0x20 DUP3 ADD SWAP1 POP SWAP2 SWAP1 POP JUMP JUMPDEST PUSH1 0x0 PUSH1 0x20 DUP3 ADD SWAP1 POP DUP2 DUP2 SUB PUSH1 0x0 DUP4 ADD MSTORE PUSH2 0xA2D DUP2 PUSH2 0x9F1 JUMP JUMPDEST SWAP1 POP SWAP2 SWAP1 POP JUMP JUMPDEST PUSH32 0x4465616C206E6F742070656E64696E6700000000000000000000000000000000 PUSH1 0x0 DUP3 ADD MSTORE POP JUMP JUMPDEST PUSH1 0x0 PUSH2 0xA6A PUSH1 0x10 DUP4 PUSH2 0x8DF JUMP JUMPDEST SWAP2 POP PUSH2 0xA75 DUP3 PUSH2 0xA34 JUMP JUMPDEST PUSH1 0x20 DUP3 ADD SWAP1 POP SWAP2 SWAP1 POP JUMP JUMPDEST PUSH1 0x0 PUSH1 0x20 DUP3 ADD SWAP1 POP DUP2 DUP2 SUB PUSH1 0x0 DUP4 ADD MSTORE PUSH2 0xA99 DUP2 PUSH2 0xA5D JUMP JUMPDEST SWAP1 POP SWAP2 SWAP1 POP JUMP JUMPDEST PUSH32 0x4E6F2066756E64732073656E7400000000000000000000000000000000000000 PUSH1 0x0 DUP3 ADD MSTORE POP JUMP JUMPDEST PUSH1 0x0 PUSH2 0xAD6 PUSH1 0xD DUP4 PUSH2 0x8DF JUMP JUMPDEST SWAP2 POP PUSH2 0xAE1 DUP3 PUSH2 0xAA0 JUMP JUMPDEST PUSH1 0x20 DUP3 ADD SWAP1 POP SWAP2 SWAP1 POP JUMP JUMPDEST PUSH1 0x0 PUSH1 0x20 DUP3 ADD SWAP1 POP DUP2 DUP2 SUB PUSH1 0x0 DUP4 ADD MSTORE PUSH2 0xB05 DUP2 PUSH2 0xAC9 JUMP JUMPDEST SWAP1 POP SWAP2 SWAP1 POP JUMP INVALID LOG2 PUSH5 0x6970667358 0x22 SLT KECCAK256 MSIZE 0x1E DELEGATECALL 0xAE 0xBE MOD 0xC3 0xC8 0x4C SLT DELEGATECALL 0xC9 MSTORE8 0xBF 0xEF 0xAE 0x4D 0xB7 0x23 0xB2 0x27 LT PUSH16 0x1CBB2B960AAEC2029E64736F6C634300 ADDMOD GT STOP CALLER "},"methodIdentifiers":{"createDeal(address)":"40500932","dealCounter()":"217328b6","deals(uint256)":"03988f84","fundDeal(uint256)":"85d60ec6","releaseFunds(uint256)":"4d68282f"}}}}}