{
  "_format": "hh-sol-artifact-1",
  "contractName": "Escrow",
  "sourceName": "contracts/Escrow.sol",
  "abi": [
    {
      "inputs": [
        {
          "internalType": "address",
          "name": "_seller",
          "type": "address"
        }
      ],
      "name": "createDeal",
      "outputs": [
        {
          "internalType": "uint256",
          "name": "",
          "type": "uint256"
        }
      ],
      "stateMutability": "nonpayable",
      "type": "function"
    },
    {
      "inputs": [],
      "name": "dealCounter",
      "outputs": [
        {
          "internalType": "uint256",
          "name": "",
          "type": "uint256"
        }
      ],
      "stateMutability": "view",
      "type": "function"
    },
    {
      "inputs": [
        {
          "internalType": "uint256",
          "name": "",
          "type": "uint256"
        }
      ],
      "name": "deals",
      "outputs": [
        {
          "internalType": "address",
          "name": "buyer",
          "type": "address"
        },
        {
          "internalType": "address",
          "name": "seller",
          "type": "address"
        },
        {
          "internalType": "uint256",
          "name": "amount",
          "type": "uint256"
        },
        {
          "internalType": "enum Escrow.DealStatus",
          "name": "status",
          "type": "uint8"
        }
      ],
      "stateMutability": "view",
      "type": "function"
    },
    {
      "inputs": [
        {
          "internalType": "uint256",
          "name": "_dealId",
          "type": "uint256"
        }
      ],
      "name": "fundDeal",
      "outputs": [],
      "stateMutability": "payable",
      "type": "function"
    },
    {
      "inputs": [
        {
          "internalType": "uint256",
          "name": "_dealId",
          "type": "uint256"
        }
      ],
      "name": "releaseFunds",
      "outputs": [],
      "stateMutability": "nonpayable",
      "type": "function"
    }
  ],
  "bytecode": "0x608060405234801561001057600080fd5b50610b42806100206000396000f3fe60806040526004361061004a5760003560e01c806303988f841461004f578063217328b61461008f57806340500932146100ba5780634d68282f146100f757806385d60ec614610120575b600080fd5b34801561005b57600080fd5b50610076600480360381019061007191906106bb565b61013c565b60405161008694939291906107af565b60405180910390f35b34801561009b57600080fd5b506100a46101b9565b6040516100b191906107f4565b60405180910390f35b3480156100c657600080fd5b506100e160048036038101906100dc919061083b565b6101bf565b6040516100ee91906107f4565b60405180910390f35b34801561010357600080fd5b5061011e600480360381019061011991906106bb565b610323565b005b61013a600480360381019061013591906106bb565b6104e3565b005b60006020528060005260406000206000915090508060000160009054906101000a900473ffffffffffffffffffffffffffffffffffffffff16908060010160009054906101000a900473ffffffffffffffffffffffffffffffffffffffff16908060020154908060030160009054906101000a900460ff16905084565b60015481565b6000600160008154809291906101d490610897565b919050555060405180608001604052803373ffffffffffffffffffffffffffffffffffffffff1681526020018373ffffffffffffffffffffffffffffffffffffffff168152602001600081526020016000600381111561023757610236610738565b5b815250600080600154815260200190815260200160002060008201518160000160006101000a81548173ffffffffffffffffffffffffffffffffffffffff021916908373ffffffffffffffffffffffffffffffffffffffff16021790555060208201518160010160006101000a81548173ffffffffffffffffffffffffffffffffffffffff021916908373ffffffffffffffffffffffffffffffffffffffff1602179055506040820151816002015560608201518160030160006101000a81548160ff0219169083600381111561031157610310610738565b5b02179055509050506001549050919050565b600080600083815260200190815260200160002090508060000160009054906101000a900473ffffffffffffffffffffffffffffffffffffffff1673ffffffffffffffffffffffffffffffffffffffff163373ffffffffffffffffffffffffffffffffffffffff16146103cb576040517f08c379a00000000000000000000000000000000000000000000000000000000081526004016103c29061093c565b60405180910390fd5b600160038111156103df576103de610738565b5b8160030160009054906101000a900460ff16600381111561040357610402610738565b5b14610443576040517f08c379a000000000000000000000000000000000000000000000000000000000815260040161043a906109a8565b60405180910390fd5b60028160030160006101000a81548160ff0219169083600381111561046b5761046a610738565b5b02179055508060010160009054906101000a900473ffffffffffffffffffffffffffffffffffffffff1673ffffffffffffffffffffffffffffffffffffffff166108fc82600201549081150290604051600060405180830381858888f193505050501580156104de573d6000803e3d6000fd5b505050565b600080600083815260200190815260200160002090508060000160009054906101000a900473ffffffffffffffffffffffffffffffffffffffff1673ffffffffffffffffffffffffffffffffffffffff163373ffffffffffffffffffffffffffffffffffffffff161461058b576040517f08c379a000000000000000000000000000000000000000000000000000000000815260040161058290610a14565b60405180910390fd5b6000600381111561059f5761059e610738565b5b8160030160009054906101000a900460ff1660038111156105c3576105c2610738565b5b14610603576040517f08c379a00000000000000000000000000000000000000000000000000000000081526004016105fa90610a80565b60405180910390fd5b60003411610646576040517f08c379a000000000000000000000000000000000000000000000000000000000815260040161063d90610aec565b60405180910390fd5b34816002018190555060018160030160006101000a81548160ff0219169083600381111561067757610676610738565b5b02179055505050565b600080fd5b6000819050919050565b61069881610685565b81146106a357600080fd5b50565b6000813590506106b58161068f565b92915050565b6000602082840312156106d1576106d0610680565b5b60006106df848285016106a6565b91505092915050565b600073ffffffffffffffffffffffffffffffffffffffff82169050919050565b6000610713826106e8565b9050919050565b61072381610708565b82525050565b61073281610685565b82525050565b7f4e487b7100000000000000000000000000000000000000000000000000000000600052602160045260246000fd5b6004811061077857610777610738565b5b50565b600081905061078982610767565b919050565b60006107998261077b565b9050919050565b6107a98161078e565b82525050565b60006080820190506107c4600083018761071a565b6107d1602083018661071a565b6107de6040830185610729565b6107eb60608301846107a0565b95945050505050565b60006020820190506108096000830184610729565b92915050565b61081881610708565b811461082357600080fd5b50565b6000813590506108358161080f565b92915050565b60006020828403121561085157610850610680565b5b600061085f84828501610826565b91505092915050565b7f4e487b7100000000000000000000000000000000000000000000000000000000600052601160045260246000fd5b60006108a282610685565b91507fffffffffffffffffffffffffffffffffffffffffffffffffffffffffffffffff82036108d4576108d3610868565b5b600182019050919050565b600082825260208201905092915050565b7f4f6e6c792062757965722063616e2072656c6561736500000000000000000000600082015250565b60006109266016836108df565b9150610931826108f0565b602082019050919050565b6000602082019050818103600083015261095581610919565b9050919050565b7f4465616c206e6f742066756e6465640000000000000000000000000000000000600082015250565b6000610992600f836108df565b915061099d8261095c565b602082019050919050565b600060208201905081810360008301526109c181610985565b9050919050565b7f4f6e6c792062757965722063616e2066756e6400000000000000000000000000600082015250565b60006109fe6013836108df565b9150610a09826109c8565b602082019050919050565b60006020820190508181036000830152610a2d816109f1565b9050919050565b7f4465616c206e6f742070656e64696e6700000000000000000000000000000000600082015250565b6000610a6a6010836108df565b9150610a7582610a34565b602082019050919050565b60006020820190508181036000830152610a9981610a5d565b9050919050565b7f4e6f2066756e64732073656e7400000000000000000000000000000000000000600082015250565b6000610ad6600d836108df565b9150610ae182610aa0565b602082019050919050565b60006020820190508181036000830152610b0581610ac9565b905091905056fea2646970667358221220591ef4aebe06c3c84c12f4c953bfefae4db723b227106f1cbb2b960aaec2029e64736f6c63430008110033",
  "linkReferences": {},
  "deployedLinkReferences": {}
}